:1000000000000320D1010000896E00004D6E000049
:100010004D6E00004D6E00004D6E00004D6E0000F4
:100020004D6E00004D6E00004D6E0000896E0000A8
:10003000896E00004D6E0000896E00003D6E00006C
:10004000896E0000896E0000896E0000896E0000D4
:10005000896E0000896E0000896E0000896E0000C4
:10006000896E0000896E0000896E0000896E0000B4
:10007000896E0000896E0000896E0000896E0000A4
:10008000896E0000896E0000896E0000896E000094
:10009000896E0000896E0000896E0000896E000084
:1000A000E53C0000896E0000896E0000896E00004A
:1000B000896E0000896E0000896E0000DD8B0000F3
:1000C000896E000081930000896E0000099900008C
:1000D000896E0000359F0000896E0000896E000067
:1000E000896E0000896E0000896E0000896E000034
:1000F000896E0000896E0000896E0000896E000024
:10010000896E0000896E0000896E0000896E000013
:10011000896E000081750000896E0000896E000004
:10012000896E0000896E0000896E0000896E0000F3
:10013000896E0000896E0000896E0000896E0000E3
:10014000A1820000896E000085A40000896E000075
:10015000896E0000896E0000896E0000896E0000C3
:10016000896E0000896E0000896E0000896E0000B3
:10017000896E0000896E0000896E0000896E0000A3
:10018000896E0000896E0000896E0000896E000093
:10019000896E0000896E0000E5AA0000896E0000EB
:1001A000896E0000896E0000896E0000896E000073
:1001B000896E0000896E0000896E0000896E000063
:1001C000896E0000896E0000896E0000896E000053
:1001D0005C4B4CF2205210B51A804DF628121A8052
:1001E00000BF00BF06F054FE574B4FF030621A605C
:1001F000564A9A60564ADA60564B4FF470021A60BB
:10020000554B564A1A60564B1A6812F4807204D144
:1002100054490A604FF4A8521A60534B1A781107D8
:1002200003D51A7842F008021A70504B504C5148CE
:10023000AA221A70504A00239918A14203D21958D1
:1002400099500433F8E74D4B4D4900228B4202D2BE
:1002500043F8042BFAE74B484B4900235A581A50ED
:100260000433B3F5E87FF9D1484B494A802103F8BC
:10027000011B9342FBD1474B424A1A60464B8A22EC
:100280001A70A3F5805324225A70A0221A709A790A
:100290009207FCD59A79D406FCD4404B9A7902F0A7
:1002A0000C02082AFAD13E4B60221A7002331A78E7
:1002B000802AFCD1394B01221A715D225A719A7938
:1002C0009006FCD59979354A4906FBD5354B364918
:1002D00019600021596020231370937903F00C03F7
:1002E0000C2BFAD1314B324A1A60324B324A1A6027
:1002F00000225A60072243F8042C304AC3F80C2D20
:1003000062B606F0C3FF174B1B68DA0705D52C4809
:1003100006F0F0FE2B4B2C4A1A602C4B1B785B0628
:1003200009D5284C284A2368934204D1244806F072
:10033000E1FE002323600BF0A3FF06F0AFFD08F001
:100340008BF8FEE70E20054030800440823F040019
:100350000100002B88ED00E0002008E0030000858C
:1003600010D0034014D0034002D0074000E0074003
:10037000241FFF1F840D01006013FF1F241FFF1F98
:10038000C82AFF1F000EFF1F0000000000E400E06D
:1003900064E400E008ED00E0005006400040064044
:1003A00001E007404480044000000602048004404D
:1003B000C010070014E000E01FBF02000000202072
:1003C000870760581CE00340A5C3945A00F007401B
:1003D000FFFFFFFFFFFFFFFFFFFFFFFFFFFFFFFF2D
:1003E000FFFFFFFFFFFFFFFFFFFFFFFFFFFFFFFF1D
:1003F000FFFFFFFFFFFFFFFFFFFFFFFFFFFFFFFF0D
:10040000FFFFFFFFFFFFFFFFFFFFFFFFDEF9FFFF23
:1004100010B5054C237833B9044B13B10448AFF33E
:1004200000800123237010BD241FFF1F0000000067
:100430007C0D010008B5064B1BB106480649AFF319
:1004400000800648036813B1054B03B1984708BD07
:10045000000000007C0D0100281FFF1F241FFF1F4C
:100460000000000010B50446034A40F8182B01F0C4
:1004700099FB204610BD00BFD80001000F4B036060
:100480004172026100230372C36039B119460269E7
:1004900042F823100133427A9A42F8DC084B1A687A
:1004A0000AB9186004E053690BB11A46FBE75061C2
:1004B000002343618380C380704700BF10000100A8
:1004C000D426FF1F70B50920022106F055FE142026
:1004D000022106F051FE0A20022106F04DFE1120F5
:1004E000012106F049FE1320012106F045FE0020FF
:1004F000012106F041FE0020014606F00BFE11200E
:10050000002106F007FE1320002106F003FE544BE5
:100510001B7803F0FC01534A126812F4805F15D077
:100520008B4240F0888011E04FF4A2704E4A106078
:1005300008E04FF4A2704D4A106003E04FF4A2703F
:100540004B4A10604FF41070474A1060444A1170D3
:1005500003F0F0024348006810F4805F14D0914229
:1005600071D111E04FF4A2704249086008E04FF4E5
:10057000A2704149086003E04FF4A2703F4908604F
:100580004FF400703B49086035490A7003F0C00120
:100590003448006810F4805F14D08A4259D111E0C9
:1005A0004FF4A272364B1A6008E04FF4A272354B3A
:1005B0001A6003E04FF4A272334B1A604FF41072CA
:1005C0002F4B1A60264B19703048082107F04AFD5E
:1005D000C82006F045FE44F6CC422D4B9A612D4CC6
:1005E000204604F0DDFA2046002104F039F92046C7
:1005F0004FF6FF7105F038FC2046022105F02EFC75
:10060000254D264E10E01320012106F083FD2368BE
:100610005B682046314619229847204607F00CFFB8
:100620004FF4FA6006F01CFE2846092101F0AEFBEB
:100630000028E8D070BD13F003023FF475AF012A23
:100640003FF477AF7AE713F00C018BD004298ED0FA
:1006500092E713F03003A3D0102BA6D0AAE700BF77
:100660000027FF1F3C80044018B0044008C004402D
:10067000409004401CB004400CC00440449004402E
:1006800014B0044004C004403C9004400002FF1F2A
:100690007C1FFF1F581FFF1FF422FF1F18000100BF
:1006A00010B582B004460368DB6898478DF80600F1
:1006B0002368DB68204698478DF80700BDF80600E0
:1006C00002B010BD10B582B004460368DB689847DD
:1006D0008DF804002368DB68204698478DF80500F4
:1006E0002368DB68204698478DF806002368DB689E
:1006F000204698478DF80700019802B010BD00BF52
:100700002DE9F04FADF5163DADF5517D04460D4692
:1007100016460CA801F038FAA24B1B680B930B9BF2
:10072000C8A800214FF416320CF012F94AF65523EE
:10073000ADF820339C4BB3F906309D4280F21A810C
:10074000994BB3F908309E4280F214810DF51630B2
:1007500000F5487095492246012301F0C5FB0DF5CF
:10076000163404F5497423788DF834300DF51631BC
:1007700001F54A710B680E930DF5163202F54B72B6
:1007800013788DF83C300DF13D000DF5163303F56F
:10079000507353F8134D59689A6804604160826041
:1007A0001B7B03730DF5163404F54F742368139304
:1007B0000CA801F03FFA04460DF5163000F548701C
:1007C00001F0F0F964B9784C204600210A4605F0A2
:1007D0002BFB23685B68204675490E229847C9E0C9
:1007E0000CA8FFF75DFF44F64253984240F0C680E4
:1007F0000CA8FFF767FF0CA8FFF764FF0CA8FFF732
:1008000061FF04460CA8FFF75DFF0CA8FFF75AFF35
:1008100007460CA8FFF756FF80460CA8FFF740FFDD
:10082000012840F0AB800CA8FFF73AFFC0B21828AF
:1008300040F0A4800CA8FFF745FF002840F09E8000
:10084000069743467A1C02EB420222F0030205920D
:10085000B8F1000F04DAC8F100030021089101E0AB
:1008600001220892504AB2F90620E9190139914251
:10087000A4BFC5EB020506954B4AB2F908209919A9
:1008800001399142A6BFC6EB020607960793079966
:10089000002958DD013B0DF21E3A069A52000992DA
:1008A0000494059901FB034303934FF0000B4FF4AD
:1008B000347414AEB146039D049B0899002908BF07
:1008C0001D460CA801F088F9854205D00CA82946E0
:1008D00001F076F94FF434740699002924DD099F5C
:1008E000574455460DF13008B4F5347F06D34046E1
:1008F00049464FF4347201F05BF90024325DA11CCB
:1009000089B2631C9BB2F35C0334A4B2715C01F046
:10091000F80103F0FC03DB0043EA012343EAE203AE
:1009200025F8023FBD42DFD10BF1010B039B059976
:100930005A1A049B0B440AF5F07A07998B4502D0AA
:1009400003920493B7E7079C23B20093C8AB0193CB
:10095000154800210A46069C23B203F091FF13209C
:10096000012106F0D7FB0CA801F058F90CA801F002
:1009700019F911E00CA801F015F90DE00CA801F02F
:100980004DF90C4C23685B6820460B491A229847A6
:10099000204607F051FDE9E70DF5163D0DF5517DB7
:1009A000BDE8F08FDC25FF1F581FFF1FF422FF1F3B
:1009B000340001000427FF1F4400010030B5C1B01E
:1009C0006D4B1B78042B00F2D280DFE803F0032884
:1009D000616E7200694C23685B6820466849042296
:1009E0009847204607F028FD6648002103F038FFAD
:1009F0001320002106F08EFB0022634B1A6063482F
:100A000005F0D0FD01225C4B1A7023685B6820461C
:100A10005F4909229847204607F00EFDAAE05B488F
:100A200006F0CAF8002800F0A580584806F0D8F86B
:100A3000002800F09F80554B1B78042B40F09A80D3
:100A40004E4C23685B68204652490922984720464D
:100A500007F0F2FC4D4B1C787CB14B4B1A6800231D
:100A60004A4DE9184878D90000FA01F10A440133E7
:100A7000D9B28C42F5D8444B1A601120002106F0FF
:100A800049FB04223C4B1A70C82006F0E9FB71E0D8
:100A90000020014606F03EFB1120002106F03AFB43
:100AA0001320002106F036FB64E00022324B1A705E
:100AB00060E0354D684638492A680CF08FF9684681
:100AC0000CF02CFA02462D4C23685B6820466946E0
:100AD0009847204607F0B0FC684600210A46FFF719
:100AE0000FFE68462D492A680CF078F92C486946B3
:100AF00001F078FA90B168460CF010FA02462368CB
:100B00005B68204669469847204607F095FC002020
:100B1000012106F0FFFA052006F0A2FB21486946F4
:100B200000F032FB48B1052006F09AFB1D4C204630
:100B300000F09AFD0028FAD109E0104C23685B68A8
:100B4000204619490E229847204607F075FC4FF4BD
:100B5000FA6006F085FB0020014606F0DBFA132060
:100B6000002106F0D7FA0022034B1A7002E000229F
:100B7000014B1A7041B030BD541FFF1F0427FF1FE7
:100B800060000100581FFF1F501FFF1F401FFF1F65
:100B90006800010074000100800001009000010065
:100BA000F422FF1FB41FFF1FA000010070B584B026
:100BB0000B2300930D2301930C23029326480A2153
:100BC0000F22042303F04CF924481421112205F0CC
:100BD0004FF9234D284600210A46FFF74FFC2846CF
:100BE000204B40F8183B00F0CFFF284600F08AFA6F
:100BF00028461D491D4A0BF033FB1D4C204604219D
:100C000004F12802FFF73AFC1A4B23604FF48033BB
:100C1000A361E36123626362174E3046012106F14E
:100C20001802FFF72BFC154B3360304600F04CF9EF
:100C3000134805604460002505724572C56007F0E1
:100C400003FB10480460466005724572C56007F0FA
:100C5000FBFA04B070BD00BF581FFF1F401FFF1FED
:100C6000B41FFF1FD8000100650400003C14FF1FE3
:100C70007C1FFF1FB80001004422FF1FC8000100B5
:100C80002422FF1F3422FF1F10B5044607F0A6FBE5
:100C9000204610BD08B503480349044A0BF0E0FAAA
:100CA00008BD00BF6022FF1F890C00003C14FF1F1D
:100CB00038B5064D064C0748294622460BF0D0FAB7
:100CC0000548294622460BF0CBFA38BD890C0000B6
:100CD0003C14FF1F6822FF1F7022FF1F08B5034846
:100CE0000349044A0BF0BCFA08BD00BF7822FF1F7D
:100CF000890C00003C14FF1F08B503480349044A4F
:100D00000BF0AEFA08BD00BF8022FF1F890C000067
:100D10003C14FF1F2DE9F8438146804600263746E4
:100D2000F7B94846314607F06BFA0746002853D01A
:100D3000D8F81810B1F5803F4ED0031D00F582742D
:100D40001A6831FB02F031FB12F200F30F0002F3DC
:100D50000F02C0EA024243F8042B9C42F0D83BE069
:100D60004846314607F040FA8446A8B33B1D051DAE
:100D7000D8F8184007F5827EB4F5803F16D107F108
:100D80000C040C3054F8082C50F8081C92FA11F29C
:100D900044F8082C5A6850F8041C92FA11F25A6070
:100DA0000833083408309E45ECD812E055F8042B7F
:100DB00034FB02F034FB12F200F30F0002F30F02D7
:100DC000C0EA0242196892FA11F143F8041B9E45E9
:100DD000ECD8604607F0D2F9013608F10408042E79
:100DE0009ED13FB148463946002207F0E7F9384620
:100DF00007F0C4F9BDE8F88308B5002107F0F4F95D
:100E00000246A0B172B60A4B186810B91A6062B6F1
:100E100008BD084B1B681BB9064B1A6062B608BDBB
:100E200003490B60034B1A6062B607F0A7F908BDCF
:100E30009822FF1F8822FF1F38B51B4B1A681268C3
:100E400019791A4B19701A4B9A4206D2A3F580747D
:100E500004F5807304F5007402E0164B03F580740A
:100E6000154A106898B1021D47F6FF7532F9021B4A
:100E70002944091123F8021B9C42F7D807F07EF998
:100E80000E4B1A680C490A6000221A6005E040F215
:100E9000FF7223F8022B9C42FBD8094B1B7813B13D
:100EA0000122084B1A6038BD8C22FF1F1F800040B2
:100EB000200BFF1F200AFF1F9822FF1F8822FF1F01
:100EC0009422FF1F08E200E070B54F48012107F0AF
:100ED00025FA4E4B1A6842F480521A60802203F5BC
:100EE000032303F6F5731A700024494E012534805C
:100EF000284606F0B5F90834A4B223B2B3F5006F62
:100F0000F5D1444B1B6813F4800F16D0424B1A687E
:100F100048F6A2731A409A420FD1404B1A6840F229
:100F20004F539A4209D13E4B1B68012B05D13D4BD3
:100F30001A6840F201139A4217D0364B1A6842F4ED
:100F400080021A600122A3F59033303B1A6040F210
:100F50004F52083B1A60043B48F6A3721A60324AAB
:100F60001A6040F2011210331A60274C23681A6885
:100F700000222E4919602368022119715A7101203B
:100F80009871D87119725A729A72DA721A736FF074
:100F9000010159734FF0FF319973D97319691C49D5
:100FA00019611A755A75D98A4FF48071D9821A76E7
:100FB0005A769A76DA76D88BD983998B06219983DB
:100FC000237903F1804303F504331A70B0221A70B9
:100FD00007F052F9164B18702279164B1A702279C5
:100FE00002F110011448154B43F8210053119B00E6
:100FF00003F1604303F5614302F01F02012101FA8E
:1010000002F21A6070BD00BF8C22FF1F2C800440CA
:1010100000C00C403C80044000600340046003407A
:101020000C60034010600340A28F0100200AFF1FE4
:101030009422FF1F1B800040390E0000000EFF1F8E
:1010400008B503480349044A0BF00AF908BD00BF7C
:101050008C22FF1F890C00003C14FF1F08B50348B9
:101060000349044A0BF0FCF808BD00BF9C22FF1F97
:10107000890C00003C14FF1F08B503480349044ACB
:101080000BF0EEF808BD00BFA422FF1F890C000082
:101090003C14FF1F08B503480349044A0BF0E0F86D
:1010A00008BD00BFAC22FF1F890C00003C14FF1FCD
:1010B00008B503480349044A0BF0D2F808BD00BF45
:1010C000B422FF1F890C00003C14FF1F08B5034821
:1010D0000349044A0BF0C4F808BD00BFBC22FF1F3F
:1010E000890C00003C14FF1F08B503480349044A5B
:1010F0000BF0B6F808BD00BFC422FF1F890C00002A
:101100003C14FF1F10B504460C2380F86B3280F8A6
:101110006C3200230365C06D18B107F02FF800236F
:10112000E365206E18B107F029F80023236610BD8F
:1011300038B5044672B690F86B320C2B1FD0C06DD8
:101140000023E365256E23660C2384F86B3262B6B8
:1011500008B107F013F815B1284607F00FF804F1AD
:10116000180000F05BFD074B1B8823B1013B9BB2CD
:10117000044A138023B9402000F0C2FB38BD62B698
:1011800038BD00BFCC22FF1F30B589B004460D46E4
:10119000FFF7CEFF402000F099FB204B1A88013268
:1011A0001A8072B668461E492A46012300F09CFE4A
:1011B0009DF804302377029B23629DF80C3084F85D
:1011C000243008AB53F8135D58689968C4F825506B
:1011D000C4F82900C4F82D101B7B84F83130079B1C
:1011E0006363684600F0DEFC62B604F1180000F0AC
:1011F00021FD024670B10023A4F86832A4F86632DB
:101200000C2184F86C121421216584F86A320823B9
:1012100084F86B32104609B030BD00BFCC22FF1FEE
:10122000F422FF1F836B9AB2012A2AD1C26B4AF6BD
:1012300044418A420AD045F222618A4209D042F6EC
:1012400011318A421FD11349042204E012490022BD
:1012500001E0124904221B0C012B04D0022B14D1F3
:10126000490842F00102B0F84630082B04D0102B98
:101270000DD1490842F00202816580F86C220120FC
:101280007047002070470020704700207047002002
:10129000704700BF34EE35178D7BCD051AF79A0BDA
:1012A0002DE9F84F0446B0F86662064466360D46EE
:1012B000002900F0B4814FF008090027DFF898B347
:1012C000DFF898A302E0002D00F0AC8194F86B32B7
:1012D0000C2B00F29C81DFE813F0A801A801D800D4
:1012E0002601A801A801A801A8010D004F007F0058
:1012F000BC00A801236D9D4234BFA846984604F166
:10130000380094F86A3218443146424605F072FCBF
:1013100094F86A32434484F86A32B4F8663243443B
:10132000A4F86632236DC8EB03032365002B40F05D
:101330007F81A36B534540F06A81236CC54A934279
:1013400040F06581636C02F15B4202F5F11202F636
:101350000F42934240F05B81A36CA3F11002082A74
:1013600000F255814644C8EB0505236584F86A728E
:10137000092384F86B32A6E7236D9D4234BFA8464B
:10138000984604F1380094F86A32184431464246CF
:1013900005F030FC94F86A32434484F86A32B4F8B9
:1013A00066324344A4F86632236DC8EB0303236519
:1013B000002B40F040812046FFF734FF002800F06A
:1013C00026814644C8EB0505C4F8509084F86A723B
:1013D0000A2384F86B3276E7236D9D4234BFA8461A
:1013E000984604F1380094F86A321844314642466F
:1013F00005F000FC94F86A32434484F86A32B4F889
:1014000066324344A4F86632236DC8EB03032365B8
:10141000002B40F013814644C8EB0505E36B2365C0
:10142000A36B5B4511D184F86D7294F86C3284F82B
:101430006B3213F0010F05D006F044FE2066002841
:1014400000F0FF80236D63653DE70B2384F86B326A
:1014500039E7236DAB4209D95B1B2365B4F86632CB
:101460001D44A4F866520020BDE8F88F1E44ED1A12
:10147000B4F866221344A4F86632C4F8509084F895
:101480006A720A2384F86B321DE7236D9D4228BFE0
:101490001D465B1B2365023616F8021C16F8010C6C
:1014A000023DE26DB4F8643003F1010CA4F864C0AD
:1014B00002EB430341EA00229A80B4F864307F2BA8
:1014C00024D92046E16D002206F078FE2046E16D29
:1014D000012206F073FEE06D06F050FE0023E36586
:1014E000236D1D44256504F16603F71AA4F866729E
:1014F000206E08B106F042FE236D002B40F0A48060
:101500000C2384F86B320120BDE8F88F0236002DE1
:10151000C2D1236D002B40F09A800C2384F86B32EB
:101520000020BDE8F88F236D9D4228BF1D465B1B40
:10153000236594F86D325BB1E36DB4F8642003EB7E
:101540004202A36B9380002384F86D3219E03E467B
:1015500033787278023D0BD1216D002951D043EAD6
:101560000223A363022384F86D320020BDE8F88FC4
:101570000236E16DB4F8640001EB400143EA022356
:101580008B80374617F8021B7078023D226EB4F844
:1015900064305E1CA4F8646002EB430341EA00225D
:1015A0009A80B4F864307F2B22D92046E16D002266
:1015B00006F004FEE06D06F0E1FD0026E66520463B
:1015C000216E012206F0FAFD206E06F0D7FD266698
:1015D000236D1D44256504F16603FF1AA4F86672A5
:1015E000002D3DD10C2384F86B320120BDE8F88F2B
:1015F000002DACD1236D23B1002084F86D02BDE82D
:10160000F88F0C2384F86B320020BDE8F88F0C2390
:1016100084F86C3284F86B320020BDE8F88F00202B
:10162000BDE8F88F0020BDE8F88F0020BDE8F88FF6
:101630000020BDE8F88F0020BDE8F88F0020BDE84D
:10164000F88F0020BDE8F88F0120BDE8F88F00205A
:10165000BDE8F88F5741564564617461524946466A
:101660000120BDE8F88F00BF90F86B0207288CBFFF
:1016700000200120704700BF2DE9D847044690F8AC
:101680006B320C2B00F0AD8006F01CFDE0650028ED
:1016900000F0A78094F86B32072B0BD813F0010FE2
:1016A00008D006F00FFD206630B9E06D06F066FD4B
:1016B000BDE8D887002323660023A4F86430B4F87B
:1016C0006812B4F86632C91A002905DD2046FFF712
:1016D000E7FD002840F0858094F86B320C2B2CD06D
:1016E00004F11806304600F085FA30B304F16608BC
:1016F0004FF400774FF00009304641463A4600F07B
:1017000057FA83B2A4F86832BBB1A4F8669294F891
:101710006BA220461946FFF7C3FD20B194F86B3247
:101720000C2B5ED109E094F86B320C2B05D0BAF18A
:10173000070F16D9072BDFD913E004F1180000F0CA
:101740006DFA294B1B8823B1013B9BB2264A1380BB
:1017500013B9402000F0D4F80C2384F86C3284F8DC
:101760006B32E36D1BB3B4F86420DAB113467F2A01
:1017700007D80021E26D02EB430291800133802BF8
:10178000F8D12046E16D002206F018FD94F86B3286
:10179000072B07D813F0010F04D12046E16D012279
:1017A00006F00CFDE06D06F0E9FC0023E365236E16
:1017B000BBB1B4F864207AB113467F2A07D8002160
:1017C000226E02EB430291800133802BF8D1204638
:1017D000216E012206F0F2FC206E06F0CFFC002301
:1017E0002366BDE8D88700BFCC22FF1F284B1A68AC
:1017F00042F480521A60274B274A1A60274ADA605F
:1018000002F180421A61264A1A60264B1B7813F0B7
:10181000030302D0012B05D009E04FF41072224BD4
:101820001A6008E04FF40072204B1A6003E04FF496
:1018300000721F4B1A601B4B1B7813F00C0302D075
:10184000042B05D009E04FF400721A4B1A6008E02F
:101850004FF40072184B1A6003E04FF40072174BFC
:101860001A60104B1B7813F0300302D0102B05D0F8
:1018700009E04FF41072124B1A6070474FF4007277
:10188000104B1A6070474FF400720F4B1A6070478C
:101890003C80044000C0024001401F00011000389D
:1018A00000001F800027FF1F18B0044008C004403C
:1018B000409004401CB004400CC0044044900440DC
:1018C00014B0044004C004403C90044030B4632889
:1018D00010D84309084A012101FA03F514782C4372
:1018E0001470064A00F01F00814052F823400C4358
:1018F00042F8234030BC7047F022FF1FD022FF1F68
:10190000632815D8430900F01F00012202FA00F0F5
:10191000084A52F8231021EA000042F8230038B99F
:10192000054A012101FA03F3117821EA0303137038
:10193000704700BFD022FF1FF022FF1F0238182877
:101940001AD8DFE800F00D1919191B19191B0D1908
:1019500019191917191919190F13151119190D003A
:10196000012070470420704704207047082070470A
:1019700008207047102070470020704702207047F1
:1019800038B50C46FFF7DAFF054650B12046FFF7A1
:10199000D5FF40B1054015F0FF0F14BF0020012016
:1019A00038BD002038BD002038BD00BF02381828DF
:1019B0004AD8DFE800F0134949491F4949190D4940
:1019C0004949493D494949492531372B494943004E
:1019D0004FF400721D4B1A60012070474FF40072E3
:1019E0001B4B1A60012070474FF40072194B1A60AC
:1019F000022070474FF40072174B1A6002207047A4
:101A00004FF40072154B1A60042070474FF40072B7
:101A1000134B1A60042070474FF40072114B1A6088
:101A2000082070474FF400720F4B1A60082070476F
:101A30004FF400720D4B1A60102070474FF4007283
:101A40000B4B1A60012070470020704710B0044013
:101A500000C004400CB0044010C0044014C0044056
:101A600008B0044018C0044004B0044000B0044072
:101A70003890044010B582B002AB03F8011D026833
:101A8000546819460122A04702B010BD10B50446A3
:101A9000C3691BB901230371002010BD0020187118
:101AA000E06992B201F0F4FCE3691B7913B1012300
:101AB0002371002010BD00BF00B583B0C06960B1C4
:101AC0000DF10701012201F073FA01280CBF9DF806
:101AD00007004FF6FF7000B201E04FF0FF3003B097
:101AE0005DF804FB30B583B00446C06978B10DF1F0
:101AF0000701012201F05CFA01280AD19DF8075084
:101B0000E069C168013901F017FB284603E00020B5
:101B100001E04FF0FF3003B030BD00BF08B5C06931
:101B200008B101F041FB08BD2DE9F04104460E4625
:101B30009046002303714FF47A7282600373114B55
:101B4000036024200AF0C4FBE061B8B135460746C3
:101B500006F1200E3E4628686968AA68EB680FC641
:101B6000103537467545F5D12868306004F10D0011
:101B700041460C220BF002FA002363762046BDE8B2
:101B8000F08100BFE8000100002202714FF47A7179
:101B90008160027302490160C2614273704700BFF5
:101BA000E8000100014B0360704700BFE80001003E
:101BB00008B5C06910B101F0FBF908BD002008BDEF
:101BC00008B5C06928B101F0B7FA003018BF01208C
:101BD00008BD002008BD00BFC3690BB1D8687047BD
:101BE0004FF0FF30704700BFC3690BB19869704771
:101BF0000020704738B50446C36963B1FFF7F4FFAE
:101C000005462046FFF7E8FF281A47F6FF7398427B
:101C100028BF184638BD002038BD00BF10B50446A7
:101C2000C06930B101F0ECFAE0690AF059FB002319
:101C3000E36110BDC36923B19879003018BF01205A
:101C400070470020704700BF10B58AB004460A46AE
:101C500000238DF80830094901918DF80A3001A858
:101C60002146012301F07EFB041C18BF012414B19E
:101C700001A801F0C5FA20460AB010BD100101000C
:101C8000F0B40C68035D2F2B1CD101341AE0002541
:101C900063B11EE00135013407F8013F0C2D05D07A
:101CA00016F8013F2F2B01D0002BF3D10023535501
:101CB000035D2F2B08BF01340C60005D003018BF9E
:101CC00001200BE00619035D2F2B08BF0025EDD086
:101CD000DDE70134137017460125E1E7F0BC7047DA
:101CE0002DE9F04F99B082460F4691469846002361
:101CF0008DF81C30244A06928DF81E308DF8403045
:101D00000F928DF8423001930C4606AE4FF0010B56
:101D100003E00FAC234634461E46504601A902AAF2
:101D2000FFF7AEFF054680F00102204602A9D2B2BD
:101D30004346C84730B9BC421CD0204601F060FA87
:101D400000201EE07DB13046214602AA5B4601F02C
:101D500009FB0546BC4211D0204601F051FA002D86
:101D6000D8D100200DE0BC4206D0204601F048FA50
:101D7000012006E0002004E0012002E00028C8D194
:101D8000002019B0BDE8F08F1001010038B50446FD
:101D90000A46FE290CD1FE23037000F0A7FA05467F
:101DA00000F090FAA070D5F1010038BF002002E0E9
:101DB000012100F001FEA8B1251D2846214601227F
:101DC00001F042FE28B928462146002201F03CFEDF
:101DD00050B104F12C00294601F0C0F8003018BFC2
:101DE000012038BD002038BD002038BD2DE9F04F5E
:101DF00099B081469346019300238DF81C30394AEF
:101E000006928DF81E308DF840300F928DF84230DA
:101E100006A8043101F0A2F85C460FAE06AD4FF003
:101E20002F084FF0000A2CE023782F2B01D101342A
:101E300027E03F1BFFB20C2F28BF0C2702A821462A
:101E40003A460BF09BF818AB3B4403F858AC3046CD
:101E500001F0D6F93046294602AA012301F082FAA0
:101E600040B9002389F804301E4AC9F8002089F8D7
:101E7000063032E03C44284601F0C2F92B46354694
:101E80001E46204641460AF0CFFF07460028CBD128
:101E9000CBEB0404019B1C602B7989F80430114BB7
:101EA000C9F800306B7989F80530AB7989F80630CC
:101EB000AB68C9F80830EB68C9F80C302B69C9F871
:101EC00010302B7D89F81430AB69C9F81830EB69F4
:101ED000C9F81C302B6AC9F82030484619B0BDE853
:101EE000F08F00BF10010100F0B5A7B00446154601
:101EF0001F4602A801ABFFF779FF01996E18695CD4
:101F000019BB9DF80C308DF85430344B14939DF868
:101F10000D308DF855309DF80E308DF85630049BFD
:101F20001693059B1793069B18939DF81C308DF80C
:101F30006430089B1A93099B1B930A9B1C932046B1
:101F400014A9274AFFF7F0FD45E000218DF8301075
:101F5000224B0B938DF832109DF80E301BB92046A2
:101F6000FFF712FE37E00BA802A932463B4601F00C
:101F7000F9F918B92046FFF707FE2CE002A801F096
:101F80003FF917F0060F03D00BA8119901F0D4F810
:101F90009DF830308DF87830104B1D939DF831301E
:101FA0008DF879309DF832308DF87A300D9B1F9383
:101FB0000E9B20930F9B21939DF840308DF8883025
:101FC000119B2393129B2493139B259320461DA9B9
:101FD0003246FFF7A9FD204627B0F0BD10010100F1
:101FE0000001010008B500F12C0308461946024A19
:101FF0000023FFF775FE08BD491C0000064B0022B8
:102000009A700221596083F8242083F83020034914
:10201000D96283F832207047F422FF1F10010100BB
:1020200040F24343074A1360043213604FF488615F
:1020300004321160043213600432136004321360FE
:10204000704700BF00D004400023064A13600432EA
:1020500013600432136004321360043213600432DC
:102060001360704700D00440114B196821F008023A
:102070001A60104A0A40104340F460221A60083B7C
:102080001B6813F0080F07D10B4B0C490A6812F0BC
:10209000080F01D1013BF9D140F4602242F008025F
:1020A000034B1A6004331A6842F480121A607047B6
:1020B0002C100B400700F0FFFFFF0F0024100B4017
:1020C000224B1A6842F080021A60214A136813F00A
:1020D000010FFBD1136813F0020FF7D11D4B1860ED
:1020E0004FF0807319481C490268013B0A4002D135
:1020F000002BF9D102E00BB1012A08D0134A136872
:1021000043F4702343F001031360012070470F4B29
:102110001B6813F0800F06D00C4B1A6842F00112B6
:102120001A6003207047094B1B6813F4803F06D0E8
:10213000064B1A6842F001121A6005207047034BE3
:102140001A6842F001021A600020704730100B40FC
:1021500024100B400C100B4001000E00F8B50022BB
:10216000104B1A601048FFF7ABFF63240F4D0D4F63
:102170000D4E06E000233B603046FFF7A1FF013C17
:1021800006D02B6813F0040F08D00028F2D0F8BD59
:1021900030B90CB10020F8BD0520F8BD0028F9D0F9
:1021A000F8BD00BF08100B400000DB0C24100B40F2
:1021B00010B504460022094B1A600948FFF780FF5A
:1021C00050B9084B1B68054B1C600748FFF778FFA8
:1021D00018B9044A126810BD10BD10BD08100B409C
:1021E00000001A3710100B400000022908B52D4BD3
:1021F0001A6842F400321A6008331A6842F4005236
:102200001A6004331A6842F002021A6004331A6832
:1022100042F002021A60244B1A6822F001021A608E
:10222000FFF712FF214A224B1A601A46136813F077
:10223000807FFBD100221F4B1A604FF48132BC3BE0
:102240001A60282224331A604FF010121C331A60CF
:102250004FF46060FFF708FF174A136813F0030F8D
:10226000FBD1FFF7DDFE4FF6FF72144B1A60144AE4
:1022700004331A60083B1A6842F000621A601A467A
:10228000136813F0006FFBD10C4B1A6842F0800208
:102290001A600C3B1B6803F48033002B0CBF022038
:1022A000002008BD3080044000D0004000800001C4
:1022B0002C100B40C0100B4024100B4030100B4072
:1022C000BB007F11084B1B784BB9074B9B7843B180
:1022D000054B5B78002B14BF0320022070470020C1
:1022E00070470120704700BF4823FF1FF8B5FFF774
:1022F0007DFF844B187000225A605A709A709A6061
:10230000002840F0FE8010467F4B1A60FFF7D8FE91
:1023100050B97E4B1B684FF4D5727B4B1A607C48DA
:10232000FFF7CEFE20B1DCE00120764B1870F8BD3F
:10233000764B1A681B68B3F5D57F04D107E00120FE
:10234000704B1870F8BD01206E4B1870F8BD01225B
:102350006C4B5A700020FFF72BFF18B10120694B1E
:102360001870F8BD694B1B6813F4401F1FD0654BF4
:102370005B78002B674D08BF4FF440150024634E77
:10238000654F01342846FFF713FF002840F0A7806F
:102390003368002BC0F2A980BC42F2D104E05B4B51
:1023A0001B6813F0804F02D10022564B5A70002256
:1023B000554B1A605948FFF783FE48B9534B1B68C9
:1023C0000022514B1A605648FFF77AFE20B111E007
:1023D00001204C4B1870F8BD4C4B1A681B681B0C45
:1023E0001B04484A5360484A13604E48FFF768FE92
:1023F00020B17FE00120434B1870F8BD4A4B1A68AA
:10240000120E404BDA70494B1B6813F4400F16D183
:10241000454B1968186800F00300043B1A681B68F4
:10242000920D42EA80220132C3F3C21302339A4072
:10243000C1F30323093B9A40324B9A6009E0314BC8
:1024400001229A703A4A1268C2F3152201329202AE
:102450009A602C4B5A682C4B1A603648FFF730FEB6
:1024600050B92A4B1B684FF40072274B1A60324850
:10247000FFF726FE20B10FE00120224B1870F8BDB7
:10248000224B1B681F4B5A681F4B1A602B48FFF7E3
:1024900017FE002832D103E001201A4B1870F8BD56
:1024A0001A4B1B680222184B1A602548FFF708FEDA
:1024B00020BB164B1B68234B1A6822F006021A60D9
:1024C0001A6842F002021A60FFF7BEFD4FF4447032
:1024D000FFF7CAFDFFF7A4FD0A4B1878F8BD0120ED
:1024E000F8BD00283FF72BAF34E7174B9C423FF66F
:1024F0005BAF54E70120034B1870F8BD0120014B7E
:102500001870F8BD4823FF1F08100B4010100B4037
:1025100000001A0800003040A086010000000902F7
:1025200000001A030000090918100B401C100B4092
:1025300014100B4000001B0700001A1000001A378F
:1025400000001A0628100B409F86010070B5044653
:10255000364B1B78002B65D1344B5B7803B94902AD
:102560004FF6FF72324B1A60283B19604FF48132EC
:10257000043B1A602F48FFF7A3FD002854D12E4BCF
:102580001B682B4A136843F02001116013F4E00F1D
:1025900012D007E02B6843F020062E60403213F47F
:1025A000E00F0FD043F4E00343F02003204A136010
:1025B000FFF7D4FD01202CE0224604F5E0701F4C0B
:1025C0001F491B4D236813F4006FFBD00B68136089
:1025D0000B6853600B6893600B68D3600B681361E2
:1025E0000B6853610B6893610B68D3610B681362CE
:1025F0000B6853620B6893620B68D3620B681363BA
:102600000B6853630B6893630B68D3638242C1D139
:102610000020074A136813F0020FFBD0094A044B4D
:102620001A6070BD032070BD70BD00BF4823FF1F3E
:1026300030100B4010003A1110100B4024100B40CA
:1026400020100B402200000170B506462D4B1B7870
:10265000002B53D12B4B5B7803B949024FF6FF7225
:10266000294B1A60283B19604FF48132043B1A60F1
:102670002648FFF725FD002842D1254B1B6806F5AB
:102680000070214D234C2B6813F0100FFBD02B68EA
:1026900013F4E00F0AD01C4A136843F4E00343F03C
:1026A00010031360FFF75AFD01201EE006F1400100
:1026B000334653F8042B22608B42FAD140362B6804
:1026C00043F010032B602B6813F4E00F0AD00E4A7E
:1026D000136843F4E00343F010031360FFF73EFD7B
:1026E000012002E08642CED10020074A136813F091
:1026F000020FFBD0084A044B1A6070BD032070BD66
:1027000070BD00BF4823FF1F30100B4000003A1877
:1027100010100B4020100B4012000001084B1A68EB
:1027200042F480621A604FF00042DA62FF225A637C
:102730001A46D36A002BFCDA014B986BC0B2704783
:1027400000C00240064B1A6842F480621A604FF0E3
:102750000042DA6258631A46D36A002BFCDA7047EB
:1027600000C0024008B505281CD8DFE800F00307C8
:102770000B0F13170E4A0F4B1A6016E00C4A0D4B45
:102780001A6012E00C4A0B4B1A600EE00B4A094B20
:102790001A600AE00A4A074B1A6006E0094A054B2C
:1027A0001A6002E0084A034B1A60FFF71FF808BDE1
:1027B000000001B85823FF1F011000380320003823
:1027C00001000238043000380650013808B500789E
:1027D000012104F09FFC164B1B78002B27D0002210
:1027E000134B1A70134B1B780BB313F0010F03D06C
:1027F000114B1A68114B1A600E4B1B7813F0020F25
:1028000003D00D4B5A680E4B1A600A4B1B7813F01D
:10281000040F03D0084B9A680A4B1A60054B1B78CB
:1028200013F0080F03D0044BDA68074B1A6008BD99
:102830005C23FF1FF022FF1FE022FF1F00E100E0EA
:1028400004E100E008E100E00CE100E010B52A4BF3
:102850001B78002B4BD10122274B1A70274B1A688B
:10286000274B1B78002B35D072B6254B1B7813F005
:10287000010F07D0234B1C68234909682140234CD2
:10288000216019601E4B1B7813F0020F07D0204BFC
:102890001C681D49496821401C4C61601960184B37
:1028A0001B7813F0040F07D01A4B1C68164989686F
:1028B0002140164CA1601960114B1B7813F0080FD2
:1028C00007D0154B1C681049C96821400F4CE160C6
:1028D000196062B6114BDB68934208D00F4B104968
:1028E0001960DA6042F080421A610E4A1A6000787C
:1028F000002104F00FFC10BD5C23FF1F5823FF1FB5
:10290000F022FF1F80E100E0D022FF1FE022FF1F26
:1029100084E100E088E100E08CE100E000C00240DA
:1029200001401F0000001F8070B582B00E460B4BA7
:102930001B680093009C094DA4B2FFF7EFFEFF282F
:1029400007D02B680193019B9BB21B1BB342F4DBA6
:1029500001E0012000E0002002B070BDDC25FF1F77
:10296000F8B505460F4616464FF49671FFF7DCFFA3
:1029700047F04000FFF7E6FE182426FA04F0C0B244
:10298000FFF7E0FE083C14F1080FF6D127B1082F3D
:102990000CBF8720FF2000E09520FFF7D3FE002426
:1029A000FFF7BCFE687010F0800F03D00134B4F55F
:1029B000807FF5D1F8BD00BF2DE9F04F87B0044608
:1029C0000191002383700270884B1B680393039F5F
:1029D000BFB21046012104F09DFB2078012104F0D4
:1029E000CBFB2078012104F095FB814B1A6842F45F
:1029F00080521A600620FFF7B5FE7E4B1A687E4BA8
:102A00001B78002B35D072B67B4B1B7813F0010F6F
:102A100007D07A4B18687A49096801407948016003
:102A20001960754B1B7813F0020F07D0764B1868AE
:102A30007349496801407348416019606E4B1B78C7
:102A400013F0040F07D0714B18686D498968014075
:102A50006C4881601960684B1B7813F0080F07D031
:102A60006B4B18686649C96801406648C1601960C7
:102A700062B6684BDB68934200F0A980654B6649FB
:102A80001960DA6042F080421A61644A1A609EE07E
:102A90002846FFF757FE013E16F0FF06F8D1564BC9
:102AA0001B780BB313F0010F03D0564B1A685C4B25
:102AB0001A60514B1B7813F0020F03D0514B5A6828
:102AC000584B1A604C4B1B7813F0040F03D04D4B3E
:102AD0009A68554B1A60484B1B7813F0080F03D0C7
:102AE000484BDA68514B1A602046FFF7AFFE4FF0B3
:102AF0000008DFF8F89008E0D9F800300493049B50
:102B0000DB1B9BB2B3F5FA6F5DD8204641464246C7
:102B1000FFF726FF054660700128EDD12046082109
:102B20004FF4D572FFF71CFF10F0040F04D00123FF
:102B3000A3704FF0000A0FE04FF00408FFF7EEFD1E
:102B4000607008F1FF3313F0FF08F7D1AA283AD1DB
:102B50000223A3704FF0804A4FF037094FF000086E
:102B6000DFF888B008E0DBF800300593059BDB1B3D
:102B70009BB2B3F5FA6F26D8204649464246FFF786
:102B8000EFFE204629215246FFF7EAFE607000283A
:102B9000E9D1A378022B0ED120463A210022FFF77B
:102BA000DFFE80B9FFF7BAFD00F0C000C02811D1E8
:102BB0000323A3700EE02046FFF708FE0198FFF7FD
:102BC000D1FD2E460DE02046FFF700FE09E00A2663
:102BD000FF255DE7FFF7A2FDFFF7A0FDFFF79EFDD4
:102BE000E9E7304607B0BDE8F08F00BFDC25FF1FE6
:102BF0003C8004405823FF1FF022FF1F80E100E0CB
:102C0000D022FF1FE022FF1F84E100E088E100E006
:102C10008CE100E000C0024001401F0000001F8066
:102C200000E100E004E100E008E100E00CE100E088
:102C300070B582B004460E4B1B680093009D0C4E8D
:102C4000ADB207E033680193019B9BB25B1BB3F508
:102C5000967F09DCFFF762FD6070FF28F2D0FE2846
:102C600014BF0020012000E0002002B070BD00BFB2
:102C7000DC25FF1FF8B504460D4616468378032B66
:102C800018BF4D02FFF7E2FD204611212A46FFF74B
:102C900067FE002847D12046FFF7CAFF002842D030
:102CA000234B244A1A60244A5A635A635A6306F52E
:102CB000FD7E764513D2B01C06F5FE771946CB6A29
:102CC00013F0F00FFBD04A638B6BC3F3072500F8BA
:102CD000025C00F8013C0230B842F0D100E0B64698
:102CE00006F5007676450DD97146114AD36A13F080
:102CF000F00FFBD0936BC3F3072008704B700231C9
:102D00008E42F3D80A4B0B4A1A600B4A5A631A4692
:102D1000D36A13F0F00FFBD0054B9B6B2046FFF7F7
:102D200055FD0120F8BD2046FFF750FD0020F8BDFD
:102D300000C0024000041F80FFFF0090F8B5064667
:102D40001E4B186840F4806018604FF00040D86255
:102D50005963114602F500770446DA6A002A08DB57
:102D6000FBE7DA6A002A0DDBFBE7D36A002B15DBF1
:102D7000FBE708460A781D6845F480651D60DC6243
:102D80005A63EEE742781D6845F480651D60DC6299
:102D90005A630231B942E0D1084AE6E7FF20FFF763
:102DA000D1FCFF20FFF7CEFCFFF7B8FC707000F0FD
:102DB0001F00052814BF00200120F8BD00C00240FC
:102DC00070B5044616460D4629B38378032B18BF09
:102DD0004D02FFF73BFD204618212A46FFF7C0FDB4
:102DE000C8B92046FE213246FFF7A8FF98B1204619
:102DF0004FF41671FFF798FD68B120460D210022AF
:102E0000FFF7AEFD38B9FFF789FC20B92046FFF780
:102E1000DDFC012070BD2046FFF7D8FC002070BD0E
:102E2000014A024B1A607047032000385823FF1FE5
:102E300010B50446006A012104F1080200F07AFD91
:102E4000034650B1E3693BB9A368E361637963F07A
:102E50007F036371012300E00123184610BD00BF0A
:102E600070B50646FFF7E4FF0346E0B1336AB26887
:102E7000023A197C02FA01F55A6915441C794CB1E1
:102E8000013D281900F08CFC034660B1013C14F0B0
:102E9000FF04F6D1336A1B7C4FF400729A40B36989
:102EA0001344B3610123184670BD00BF10B504463A
:102EB000006900F045FC20B1207D034B03EB40107E
:102EC00010BD002010BD00BF6C23FF1F2DE9F001D5
:102ED00000232022CA5401330B2BFBD101380025DB
:102EE00007264FF008084FF00A0C1B4F21E02E2C4C
:102EF00001D03A4606E00A2E24D04546664618E040
:102F0000A34221D012F8013F002BF9D1AE421DD3CC
:102F1000A4F12103DBB25D2B1AD86B1CDBB20D448C
:102F2000A4F16102D2B2192A9CBF203CE4B22C70F9
:102F30001D4610F8014F002CD9D10878203818BF51
:102F4000012006E0002004E0002002E0002000E074
:102F50000020BDE8F00170471701010038B50446B4
:102F60000D4683790BBB91F82020102A07D102234C
:102F700083710023C3614B8C5B0183610CE0202AC9
:102F800014D103238371496AC161284604F11802F0
:102F900000F05CFC034648B1256201236371002206
:102FA000A260E2602261227500E00023184638BD6D
:102FB0002DE9F04F83B00446884601928379002BB7
:102FC00075D0437913F0010F74D08269C368D11AA8
:102FD0000198884201D98BB20193019B002B63D0E9
:102FE0001D46DFF80CA1DFF80C91DFF80CB1E368A7
:102FF000C3F30807A279022A04D1226A516A01EBBD
:1030000053211BE0206A0679013E06EA5326F6B2F8
:103010005FB956B913B9E369A36006E0224652F8D6
:10302000081F00F0DDFB002847D0226AA368023B9E
:10303000117C03FA01F1526911443144C7F5007360
:103040009D42C6BF1E46B6B22E46637913F0400FAE
:1030500002D1B6F5007F3AD1D9F8003099423DD17E
:1030600035E04046FFF772FAD0F1010038BF00208A
:1030700002E04246FFF7FEFD10B3B0440DE05744B6
:10308000B819874209D03B46424613F8011B02F8A3
:10309000011B8342F9D1C71BB844E3683344E360A2
:1030A000AD1BADB2002DA2D1019B98B20DE04FF641
:1030B000FF700AE04FF6FF7007E04FF6FF7004E084
:1030C0004FF6FF7001E04FF6FF7000B20CE00846CB
:1030D000002100F035FB0028D1D1F4E7DBF8000037
:1030E0000378FE2BC5D1BCE703B0BDE8F08F00BF6D
:1030F0006C23FF1F4014FF1F6823FF1F30B583B0F0
:1031000004468379012B0FD9C5680DF1070101220F
:10311000FFF74EFF012809D1E3681F33E36005F490
:10312000F070044B184402E0002000E0002003B0DF
:1031300030BD00BF6C23FF1FF8B504460F468379EE
:103140007BB382698A422BD3022B02D1E160012337
:1031500027E021B900238360C360012321E0C36815
:10316000026A157C09355A1EEA40013921FA05F533
:10317000AA4200D813B9E369A3600AE0AD1A08E0D7
:10318000206AA168324600F02BFB013D034610B9CE
:1031900007E004F10806002DF2D1E760012300E00A
:1031A00000231846F8BD00BF38B50446807918B32F
:1031B00094F90530002B1BDA20460121FFF776FE3B
:1031C0000546C0B1A379012B9CBFA369C361A38B42
:1031D0004383E38B8382094B1B682BB1183005F1C5
:1031E000160198472B8B6B82637903F07F03637121
:1031F00000F066FA38BD002038BD00BF6023FF1F15
:1032000010B50446FFF7D0FF034610B10023A371A9
:103210000123184610BD00BFF0B583B004460D462B
:103220008379012B4ED1427902F0020202F0FF01B4
:10323000002A49D08269AA4248D3002A47D0C668EA
:103240002946FFF779FF0346002840D04DB9206A90
:10325000E16900F0D3FB0346002838D00023E36186
:103260001DE0206AA16801AA00F0BAFAA8B1206A9C
:10327000019990F820704FF6F872164B102F08BF86
:10328000134699420BD200F0B9FB30B1206AA16815
:103290006FF0704200F006FB08B9002317E0A5614B
:1032A000637963F07F0363712046FFF77DFF034678
:1032B00068B12046B54234BF29463146FFF73CFF8E
:1032C000034604E0002302E00B4600E0002318461A
:1032D00003B0F0BDF8FFFF0F38B5044615461F4B8D
:1032E00003EB4113DA7A12F0110F02D015F0420FFE
:1032F0002CD121751A4A12682261998A0904E16168
:103300005A8B1143E161D87A10F0180004D1DB69BF
:10331000A3610123A3710AE0102819D1206A04F1E6
:10332000180200F093FA0346A8B10423A37105F034
:103330000F0363710023A360E36015F0400F09D011
:1033400020461946FFF768FF034604E0002302E029
:10335000002300E00123184638BD00BF6C23FF1F87
:103360004014FF1F2DE9F04F85B005460C469A46E4
:103370008679002E7FD1104601A9FFF7A7FD00280E
:103380007BD0236A2B620027A760E760DFF8FC9000
:103390004FF0010825E0C1F3431B2046FFF7AEFEC6
:1033A000014600286AD003780BB1E52B09D12FB96B
:1033B00085F814B0D9F800302B6147460B7883B9F3
:1033C00013E001A80B2209F02FFA50B90AF03003DC
:1033D000302B53D0284659465246FFF77DFF06460C
:1033E0004CE0E168A3699942D5D30AF01203122B8D
:1033F00044D137B128460121FFF758FD044660B992
:103400003CE0A379022B39D02046FFF729FD064680
:10341000002833D000232B751A4C2046002120228F
:1034200009F096FA01AB03CB206061601A889B78A3
:103430002281A372144B1B682BB104F1100004F11C
:103440000E01984707E02123237428236374002387
:10345000A3730823E373238A63822383E389E382CC
:1034600000F02EF9064648B12846297D5246FFF75E
:1034700033FF064602E0002600E00646304605B06F
:10348000BDE8F08F6C23FF1F6023FF1F4014FF1F58
:103490002DE9F04F85B00446884601928379012BCF
:1034A00040F0CB80437913F0020F00F0C68013F098
:1034B000040F08D08169C3688B4204D0FFF73CFE3B
:1034C000002800F0BA80019A002A00F09980164680
:1034D000DFF8CCA1DFF8CCB1206AE76890F804905F
:1034E00009F1FF3909EA5729C7F3080719F0FF095D
:1034F0002AD1002F40F0A580A16851B9E36933B902
:103500002046FFF795FC002840F0AC8095E0A360D2
:10351000A8E003AA00F064F9002800F0B580039B3E
:10352000226A92F820004FF6F871594A102808BF15
:103530000A46934206D32046FFF77AFC002840F063
:1035400091807AE0A3608DE0C7F50075ADB2AE4220
:1035500038BF3546A368023B027C9340426913445E
:103560009944B5F5007F1ED1DBF800304B4504BF10
:103570004FF0FF33CBF80030464B18680378FE2B32
:1035800008D140464946FFF75FF8D0F1010038BF47
:10359000002003E049464246FFF712FC00284CD0C9
:1035A00008F5007824E07FB9E268A3699A420BD35A
:1035B00000F086F8002840D0CBF80090364A137807
:1035C00043F00103137005E04846012100F0B8F80C
:1035D000002832D057447819874209D03B464246EA
:1035E00012F8011B03F8011B8342F9D1C71BB84431
:1035F000761BB6B2E3681D44E560002E7FF46CAF25
:10360000E368A269934205D9A361637963F07F03FC
:10361000637108E0214B1B682BB1019B1BB16379DF
:1036200063F07F036371637913F0080F03D02046C2
:10363000FFF7BAFD08B1019826E0012323710020AD
:1036400022E0C7F50075ADB2AE4238BF3546A3687B
:10365000023B027C03FA02F943699944B5F5007F05
:10366000B2D181E7B6F5007F34BF35464FF400751F
:10367000236AA268023A197C02FA01F95B6999444B
:10368000B5F5007F90D16FE705B0BDE8F08F00BFC2
:10369000F8FFFF0F6823FF1F6C25FF1F6023FF1F2C
:1036A0006C23FF1F4014FF1F00B583B002AB03F86B
:1036B000011D19460122FFF7EBFE03B05DF804FB84
:1036C00008B51A4B1B78002B2ED0194B1868194BD4
:1036D00019680378FE2B07D11748FEF7B5FFD0F124
:1036E000010038BF002002E0134AFFF769FBE0B198
:1036F000124B196899B10E4B18680378FE2B07D14D
:103700000D48FEF7A1FFD0F1010038BF002002E014
:10371000094AFFF755FB40B10022084B1A6000220E
:10372000024B1A70012008BD012008BD6C25FF1F47
:103730006823FF1F4014FF1F6C23FF1F6423FF1F1C
:1037400038B504460D46124B1B68834219D0FFF76B
:10375000B7FF0346D0B10F4B18680378FE2B08D192
:103760000D482146FEF7F2FED0F1010338BF0023D9
:1037700004E02146084AFFF77DFA034633B1044BC3
:103780001C60064B1A7815431D700123184638BD7E
:103790004014FF1F6823FF1F6C23FF1F6C25FF1FB2
:1037A00010B50446FFF78CFF034680B109494B1E54
:1037B00001F2FF11002203F8012F8B42FBD1064BCF
:1037C0001C60064B1A7842F001021A700123184659
:1037D00010BD00BF6C23FF1F4014FF1F6C25FF1F8F
:1037E00070B504460D461646C36801338B4225D397
:1037F000C36990F82020102A0CBF080AC809184491
:10380000104B1B68984204D00021FFF799FF034634
:10381000A8B194F82030102B06D1EDB20A4B33F842
:103820001530336001230AE005F07F05064B53F89D
:10383000253023F070433360012300E00023184655
:1038400070BD00BF4014FF1F6C23FF1F2DE9F04324
:1038500083B0044602AE46F8041D914600254FF49D
:1038600000780F4F204601993246FFF7B9FF034613
:1038700088B1237C08FA03F31D4494F820104FF616
:10388000F873102914BF39461946019B8B42E9D3BE
:10389000C9F800500123184603B0BDE8F08300BF0B
:1038A000F8FFFF0FF8B504460D461746012931D938
:1038B000C368013399422FD8C36990F82020102A99
:1038C0000CBF0E0ACE091E44164B1B689E4205D043
:1038D00030460021FFF734FF034600B394F8203050
:1038E000102B04D1EDB2104B23F8157004E005F055
:1038F0007F050D4B43F825700C4B1A7842F00102FE
:103900001A70237E012B09D9A3681E44084B1E6040
:10391000012304E0002302E0002300E00123184615
:10392000F8BD00BF4014FF1F6C23FF1F6C25FF1F55
:103930006423FF1F2DE9F04F85B006468A460092AA
:1039400017681FB101370023019305E007680129BB
:1039500014BF002301230193F36803F10108DBB1D5
:103960003C4600254FF00209CB46A0453CBF4C46E3
:103970005F463046214603AAFFF732FF60B1039B42
:103980000BB1671C03E0631CDB1B534506D00135FC
:103990000134F368AB42E8D800232AE030462146E0
:1039A0006FF07042FFF77EFF034648B921E0651EC5
:1039B000304629462246FFF775FF034618B918E03E
:1039C000BC42F4D803E0BD4201D92C46EFE7009B8E
:1039D000196829B130463A46FFF764FF034640B103
:1039E000009B1F60019B1BB101373760012300E082
:1039F0000123184605B0BDE8F08F00BFF0B583B0D5
:103A000005460C460223036000260E4F2846214639
:103A100001AAFFF7E5FE80B1284621463246FFF7AE
:103A200041FF50B1019C95F820104FF6F873102912
:103A300018BF3B469C42E9D301E0002000E0012092
:103A400003B0F0BDF8FFFF0FF8B50546494B19600C
:103A50001446DAB1042A7FD800200146FFF770FE31
:103A60000346002800F08380434B03EB041494F8D2
:103A7000AE3104F5D47413F07F036FD1D4F8121073
:103A8000632974D9D4F80E400CB970E000242046A4
:103A90000021FFF755FE0346002868D0364BB3F8E7
:103AA0000B30B3F5007F5BD1334B1B7C002B5ED01A
:103AB000314AD289002A55D02F4A517B002953D050
:103AC0002B76297100232B74012003E05A1C2A74E1
:103AD000072B4BD82B7C1E4600FA03F29142F5D1FE
:103AE000254BD98A01B9596AA960234BDA89224446
:103AF000EA61B3F8110087B268841B7C03FB0123E1
:103B00006B627A0102F2FF1203EB62236B611A4AC5
:103B1000B2F813200AB9184A126AE31A134423FAB6
:103B200006F6EE6040F6F4739E4204D80C2385F846
:103B3000203001231BE04FF6F4739E4204D810237B
:103B400085F82030012312E00B4BDB6A6B622023E7
:103B500085F8203001230AE0002308E0002306E076
:103B6000002304E0002302E00B4600E00023184697
:103B7000F8BD00BF6823FF1F6C23FF1F0B4B1B7892
:103B800013B90B4B1B7873B10A4B1B78202B03D94D
:103B90000123037100207047581C064A1070064A22
:103BA000D154012070470020704700BFD625FF1F69
:103BB0009825FF1FD725FF1F7425FF1F704700BFE3
:103BC000024B1878024B1B78C01A7047D525FF1F8F
:103BD000D425FF1F074B1B78074A12789A4205D954
:103BE000591C044A1170054AD05C70474FF0FF30F1
:103BF000704700BFD425FF1FD525FF1F9C25FF1F41
:103C0000054B1B78054A12789A4286BF044AD05C5D
:103C10004FF0FF30704700BFD425FF1FD525FF1F91
:103C20009C25FF1F08B5104BDB7813F0200F0CD13B
:103C3000122003F015FA0D4B1B689BB100210C4AB2
:103C400011700C4A1078984708BD0B4A137801335D
:103C5000DBB21370012B02D8084B1B7813B912206A
:103C600003F0FEF908BD00BF006006407025FF1F8D
:103C7000D425FF1FD525FF1FC025FF1F9825FF1F37
:103C800038B514460D4B1B7813B90D4B1B7893B107
:103C90000C4B1D78C5F12103A34202D2012202710F
:103CA0001C4609482844224602F0A4FF2544054B3F
:103CB0001D70204638BD002038BD00BFD625FF1F2F
:103CC0009825FF1FD725FF1F7425FF1F00220271B3
:103CD0004FF47A7181600273014A0260704700BF3D
:103CE0003001010008B53D4BDB78DBB213F0100F5B
:103CF00006D01021394AD17013F0400F03D108BD0E
:103D000013F0400F2CD013F0040F1BD00023344AC3
:103D10001370344A1370344B1B681BB19847314BF6
:103D20001B782BB901222F4B1A7000222F4B1A70CF
:103D30002A4BD0229A702D4A12781A7101222C4BEC
:103D40001A7009E00122264B1A700022294B1A70C2
:103D5000224BC0229A701B790222204BDA7008BDD8
:103D60001E4A927812F0100F1CD013F0010F14D1DC
:103D70001F4B1B781B4A12789A4207D9591C1C4AC0
:103D800011701A4AD25C154B1A7102E00022134BD3
:103D90001A71D022114B9A701BE0104BC0229A70FE
:103DA0001B7916E00022144B1A70122013490322CB
:103DB00003F0DEF8094B1B79DAB20E4B1B781F2B90
:103DC00007D80749097821B1581C0A4908700C49DD
:103DD000CA540222014BDA7008BD00BF00600640E1
:103DE0006D25FF1FD725FF1FBC25FF1F7425FF1F53
:103DF000D825FF1FD525FF1FC025FF1F253C00002C
:103E00009C25FF1F08B50248FFF760FF08BD00BFF3
:103E1000C425FF1FF0B4074600204FF0010CCB086B
:103E2000FC5C01F00703C3F108039A420BD300FACC
:103E300003F50CFA03F6013E344044EA0500194448
:103E4000D21AECD10AE090409B1A44FA03F3012104
:103E500001FA02F2013A1340DBB21843F0BC70479A
:103E600070B400250571114E0660417782770377A3
:103E70009DF80C3080F822309DF8103080F8233007
:103E80009DF8143080F82130F023C3804FF4A073E4
:103E90000381C57445818581012383744FF6FF72C8
:103EA0000282C2810375856170BC7047B80601004B
:103EB00070B40029C0F21E81B0F906408C4240F374
:103EC0001981002AC0F21681B0F90840944240F3EB
:103ED0001181894C2478002C35D072B6864C247818
:103EE00014F0010F07D0854C2668854D2D683540AC
:103EF000844E35602560804C247814F0020F07D082
:103F0000814C26687E4D6D6835407E4E756025601B
:103F1000794C247814F0040F07D07C4C2668784D37
:103F2000AD683540774EB5602560734C247814F049
:103F3000080F07D0764C2668714DED683540714EFC
:103F4000F560256062B6734CE468B4F1384F0AD06E
:103F5000704C714D25604FF03845E5604FF0784565
:103F600025616E4D25608EB292B290F82010090442
:103F700041F0004141F02A01664C6163E16A11F0B1
:103F8000F00F18BFA56B01F47041B1F5405FF5D893
:103F9000C47F46EA044444F010445E494C630C4636
:103FA000E16A11F0F00F18BFA56B01F47041B1F593
:103FB000405FF5D8C17F46EA014646F010465549B4
:103FC0004E630C46E16A11F0F00F18BFA56B01F4C7
:103FD0007041B1F5405FF5D890F82010090441F028
:103FE000004141F02B014B4C6163E16A11F0F00F8D
:103FF00018BFA56B01F47041B1F5405FF5D8C47FDF
:1040000042EA044444F0104442494C630C46E16ADD
:1040100011F0F00F18BFA56B01F47041B1F5405FCE
:10402000F5D8C17F42EA014242F0104239494A6361
:10403000CA6A12F0F00F18BF8C6B02F47042B2F52E
:10404000405FF5D890F82020120442F0004242F080
:104050002C0230494A63CA6A12F0F00F18BF8C6B09
:1040600002F47042B2F5405FF5D82A4A1168C07F69
:1040700043EA004343F0C0535363D36A13F0805FB5
:1040800004D113F0F00FF8D0936BF6E7214B4FF00B
:104090008052DA621960DB6A13F0F00F05D01D4B15
:1040A0009A6BDA6A12F0F00FFAD1134B1B780BB34C
:1040B00013F0010F03D0134B1A68194B1A600E4B03
:1040C0001B7813F0020F03D00E4B5A68154B1A6081
:1040D000094B1B7813F0040F03D00A4B9A68124B5C
:1040E0001A60054B1B7813F0080F03D0054BDA68F4
:1040F0000E4B1A6070BC7047F022FF1F80E100E099
:10410000D022FF1FE022FF1F84E100E088E100E0F1
:104110008CE100E000C0024001401F0000001F8051
:1041200000E100E004E100E008E100E00CE100E073
:10413000F0B4BDF81040C68837B28F4240F34581D5
:10414000B0F90850954240F34081002AC0F23D8109
:10415000002902DA0B441BB20021CF18013F35B20F
:10416000AF42A4BFC1EB06031BB2994D2D78002DC1
:1041700035D072B6964D2D7815F0010F07D0954DBC
:104180002F68954E36683E40944F3E602E60904DAD
:104190002D7815F0020F07D0914D2F688E4E76685E
:1041A0003E408E4F7E602E60894D2D7815F0040FB5
:1041B00007D08C4D2F68884EB6683E40874FBE6052
:1041C0002E60834D2D7815F0080F07D0864D2F688F
:1041D000814EF6683E40814FFE602E6062B6834D90
:1041E000ED68B5F1384F0AD0804D814E2E604FF00A
:1041F0003846EE604FF078462E617E4E2E601FFAF4
:1042000081FC9DB20CF1FF372F44BFB292B290F8FF
:1042100020301B0443F0004343F02A0373494B63EF
:10422000CB6A13F0F00F18BF8E6B03F47043B3F535
:10423000405FF5D8C17F4CEA014141F010416B4B22
:1042400059631946CB6A13F0F00F18BF8E6B03F455
:104250007043B3F5405FF5D8C17F47EA014141F0B3
:104260001041624B59631946CB6A13F0F00F18BF27
:104270008E6B03F47043B3F5405FF5D890F82030AF
:104280001B0443F0004343F02B0358494B63CB6AB4
:1042900013F0F00F18BF8E6B03F47043B3F5405F5B
:1042A000F5D8C17F42EA014141F010414F4B5963BB
:1042B0001946CB6A13F0F00F18BF8E6B03F47043EE
:1042C000B3F5405FF5D8C37F42EA034242F01042A3
:1042D000464B5A631A46D36A13F0F00F18BF916B1E
:1042E00003F47043B3F5405FF5D890F820301B0419
:1042F00043F0004343F02C033C4A5363D36A13F06A
:10430000F00F18BF916B03F47043B3F5405FF5D81D
:10431000364A11E0C37F44EA034343F0104353633A
:10432000D36A13F0F00F18BF916B03F47043B3F529
:10433000405FF5D8013DADB22BB2012BEADC2B4B2F
:104340001968C27F44EA024242F0C0525A631A46D8
:10435000D36A13F0805F04D113F0F00FF8D0936BA1
:10436000F6E7224B4FF08052DA621960DB6A13F0F5
:10437000F00F05D01D4B9A6BDA6A12F0F00FFAD1EC
:10438000134B1B780BB313F0010F03D0134B1A68B8
:10439000194B1A600E4B1B7813F0020F03D00F4B12
:1043A0005A68164B1A600A4B1B7813F0040F03D09F
:1043B0000A4B9A68124B1A60054B1B7813F0080FD2
:1043C00003D0064BDA680F4B1A60F0BC704700BF91
:1043D000F022FF1F80E100E0D022FF1FE022FF1F3C
:1043E00084E100E088E100E08CE100E000C00240F0
:1043F00001401F0000001F8000E100E004E100E038
:1044000008E100E00CE100E02DE9F00FBDF92070BB
:10441000BDF82460C48825B28D4240F30C82058922
:104420000FFA85FC944540F30682002902DA0B441A
:104430001BB20021002A02DA17443FB2002201EB2E
:10444000030808F1FF380FFA84FCE045A4BFC1EB74
:1044500004031BB202EB070C0CF1FF3C2CB2A44589
:10446000A4BFC2EB05052FB28F4C2478002C45D099
:1044700072B68D4C247814F0010F0BD08B4CD4F80D
:1044800000C08B4D2D680CEA0505DFF840C2CCF862
:1044900000502560844C247814F0020F0BD0854C1A
:1044A000D4F800C0824D6D680CEA0505DFF81CC227
:1044B000CCF8045025607C4C247814F0040F0BD009
:1044C0007D4CD4F800C07A4DAD680CEA0505DFF8E4
:1044D000FCC1CCF808502560734C247814F0080F08
:1044E0000BD0764CD4F800C0714DED680CEA050590
:1044F000DFF8D8C1CCF80C50256062B6704CE46887
:10450000B4F1384F0AD06E4C6E4D25604FF03845EF
:10451000E5604FF0784525616B4D25601FFA81F805
:1045200008F1FF3C9C441FFA8CFC94B2611E394494
:1045300089B290F82020120442F0004242F02A0290
:104540005F4D6A639946EA6A12F0F00F18BFAB6BD1
:1045500002F47042B2F5405FF5D84B46C57F48EA99
:10456000054545F01045564A55631546C846EA6A62
:1045700012F0F00F18BFAB6B02F47042B2F5405F5F
:10458000F5D84346C57F4CEA054545F010454C4AF1
:1045900055631546C446EA6A12F0F00F18BFAB6BBC
:1045A00002F47042B2F5405FF5D8634690F82020DF
:1045B000120442F0004242F02B02414D6A63EA6A63
:1045C00012F0F00F18BFAB6B02F47042B2F5405F0F
:1045D000F5D86346C27F44EA024444F01044384AA6
:1045E00054631446E26A12F0F00F18BFA56B02F490
:1045F0007042B2F5405FF5D8C27F41EA024141F016
:1046000010412F4A51631146CA6A12F0F00F18BFC9
:104610008C6B02F47042B2F5405FF5D890F8202020
:10462000120442F0004242F02C0225494A63CA6A51
:1046300012F0F00F18BF8C6B02F47042B2F5405FBD
:10464000F5D8002F40F3D2801D49DFF870A0DFF8C5
:104650006890DFF86080DFF854C0DFF874B0C0E025
:10466000C27F46EA024242F010424A63CA6A12F02E
:10467000F00F18BF8D6B02F47042B2F5405FF5D8B1
:10468000013C24B2012CEBD10C68C27F46EA024205
:1046900042F0C0524A63CA6A12F0805F1AD112F027
:1046A000F00FF8D08A6BF6E7F022FF1F80E100E000
:1046B000D022FF1F84E100E088E100E08CE100E00F
:1046C00000C0024001401F0000001F80E022FF1FC9
:1046D0000CE100E04FF08052CA620C60CA6A12F02E
:1046E000F00F04D08A6BCA6A12F0F00FFAD1012FD2
:1046F00074DD17F0010F71D0504A1278002A5FD094
:1047000012F0010F03D04E4A14684E4A14604B4A0F
:10471000127812F0020F03D0494A54684A4A1460D2
:10472000464A127812F0040F03D0454A9268474C6B
:104730002260424A127812F0080F03D0404AD26831
:10474000CBF800203D4A1278002A39D072B63B4A95
:10475000127812F0010F08D0DCF800403C4A1268D1
:104760002240374C2260CCF80020344A127812F0F4
:10477000020F08D0D8F80040354A52682240304C29
:104780006260C8F800202D4A127812F0040F08D099
:10479000D9F800402E4A92682240294CA260C9F8FC
:1047A0000020264A127812F0080F08D0DAF80040EC
:1047B000274AD2682240224CE260CAF8002062B642
:1047C000CA68B2F1384F09D0224A0A604FF0384225
:1047D000CA604FF078420A611F4A0A60013F3FB247
:1047E00027B1012B7FF750AF1C4639E7134B1B78DD
:1047F0000BB313F0010F03D0114B1A68114B1A6061
:104800000E4B1B7813F0020F03D00D4B5A680E4B62
:104810001A600A4B1B7813F0040F03D0084B9A68F8
:104820000A4B1A60054B1B7813F0080F03D0044B9A
:10483000DA680A4B1A60BDE8F00F7047F022FF1FDC
:10484000E022FF1F00E100E004E100E008E100E0F9
:10485000D022FF1F01401F0000001F800CE100E07C
:1048600000B583B0B0F90630B0F90820009201918C
:1048700000210A46FFF7C8FD03B05DF804FB00BF46
:104880002DE9F007BDF91C70089EB74C2478002C68
:1048900045D072B6B44C247814F0010F0BD0B34C51
:1048A000D4F800C0B24D2D680CEA0505DFF8DCC273
:1048B000CCF800502560AC4C247814F0020F0BD0DB
:1048C000AC4CD4F800C0AA4D6D680CEA0505DFF8C1
:1048D000BCC2CCF804502560A34C247814F0040F1B
:1048E0000BD0A54CD4F800C0A14DAD680CEA05056D
:1048F000DFF898C2CCF8085025609B4C247814F05F
:10490000080F0BD09D4CD4F800C0994DED680CEA0F
:104910000505DFF878C2CCF80C50256062B6984CDB
:10492000E468B4F1384F0AD0954C964D25604FF0AD
:104930003845E5604FF078452561934D25601FFAB5
:1049400081F999B201F1FF38C8441FFA88F895B28D
:104950007C1E2C44A4B290F82020120442F00042A5
:1049600042F02A02DFF818C2CCF83420DCF82C2000
:1049700012F0F00F18BFDCF838A002F47042B2F564
:10498000405FF3D890F81FC049EA0C4C4CF0104C33
:104990007B4AC2F834C09446DCF82C2012F0F00FA9
:1049A00018BFDCF8389002F47042B2F5405FF3D8DB
:1049B00090F81FC048EA0C4C4CF0104C704AC2F8FA
:1049C00034C09446DCF82C2012F0F00F18BFDCF84D
:1049D000388002F47042B2F5405FF3D890F820209E
:1049E000120442F0004242F02B02DFF894C1CCF8EE
:1049F0003420DCF82C2012F0F00F18BFDCF83880DF
:104A000002F47042B2F5405FF3D8C27F45EA024536
:104A100045F010455A4A55631546EA6A12F0F00F00
:104A200018BFD5F838C002F47042B2F5405FF4D830
:104A3000C27F44EA024444F01044514A546314468D
:104A4000E26A12F0F00F18BFA56B02F47042B2F5E3
:104A5000405FF5D890F82020120442F0004242F066
:104A60002C02474C6263E26A12F0F00F18BFA56B8C
:104A700002F47042B2F5405FF5D8002F4BDD8A1E7C
:104A800092B24FEA420801324FEA420908F10208A5
:104A90003B494FF0805C38E035F8022BC47F42EA96
:104AA000044242F010424A63CA6A12F0F00F18BF83
:104AB0008C6B02F47042B2F5405FF5D85545EBD1EE
:104AC00006EB090200E03246961C0C681288C57F8E
:104AD00042EA054242F0C0524A63CA6A12F0805F5D
:104AE00004D112F0F00FF8D08A6BF6E7C1F82CC0B1
:104AF0000C60CA6A12F0F00F04D08A6BCA6A12F016
:104B0000F00FFAD1013F3FB22FB1012BDBDD35466B
:104B100006EB080AC0E7144B1B780BB313F0010F28
:104B200003D01A4B1A681A4B1A600F4B1B7813F0FC
:104B3000020F03D0154B5A68164B1A600A4B1B78AC
:104B400013F0040F03D0114B9A68134B1A60064BF5
:104B50001B7813F0080F03D00C4BDA680F4B1A6068
:104B6000BDE8F007704700BFF022FF1F80E100E0C2
:104B7000D022FF1F84E100E088E100E08CE100E04A
:104B800000C0024001401F0000001F80E022FF1F04
:104B900000E100E004E100E008E100E00CE100E0F9
:104BA00070B5054690F822300B2B04D0072B02D0AD
:104BB0001C2B40F0B18295F8212002F0FB0108295E
:104BC00002D0272A40F0A88295F82320A2F10D01F7
:104BD000C9B2012902D91B2A40F09E82704A11787D
:104BE0000B2B02D101F0FC020DE0072B04D121F0C8
:104BF000030242F0010206E01C2B06BF21F0030273
:104C000042F002020A46674B1B6813F4805F25D00E
:104C1000914240F0698221E04FF4A271624B196029
:104C200008E04FF4A271614B196003E04FF4A271E8
:104C30005F4B196012F0030302D0012B05D009E08D
:104C40004FF41071584B196008E04FF40071574B46
:104C5000196003E04FF40071554B1960504B1A7006
:104C600095F821300C2B02D102F0F3030DE0082B54
:104C700004D122F00C0343F0040306E0272B06BF07
:104C800022F00C0343F0080313464649096811F467
:104C9000805F25D09A4240F02F8221E04FF4A2712C
:104CA000444A116008E04FF4A271434A116003E0E6
:104CB0004FF4A271414A116013F00C0202D0042A91
:104CC00005D009E04FF400713A4A116008E04FF452
:104CD0000071394A116003E04FF40071374A1160E6
:104CE0002F4A137095F823200D2A02D103F0CF022A
:104CF0000DE00E2A04D103F0CF0242F0100206E0CC
:104D00001B2A06BF03F0CF0242F020021A462549B3
:104D1000096811F4805F25D0934240F0F58121E0CD
:104D20004FF4A271264B196008E04FF4A271254B95
:104D3000196003E04FF4A271234B196012F03003A5
:104D400002D0102B05D009E04FF410711C4B1960F4
:104D500008E04FF400711B4B196003E04FF4007141
:104D6000194B19600E4B1A70FCF740FD687FA97F44
:104D7000FCF706FE70B1687FFCF718FE0446E87782
:104D8000A87FFCF713FE204385F82000287FFF282A
:104D90001CD133E00023EB7785F8203070BD00BFD5
:104DA0000027FF1F3C80044018B0044008C00440A6
:104DB000409004401CB004400CC0044044900440A7
:104DC00014B0044004C004403C900440012102F0AF
:104DD000D3F9287F012102F09DF9052002F040FA65
:104DE000287F002102F096F9142002F039FA287F7A
:104DF000012102F08FF9962002F032FA904B1B78D5
:104E0000002B35D072B68E4B1B7813F0010F07D0F4
:104E10008C4B19688C4A12680A408C490A601A60E7
:104E2000874B1B7813F0020F07D0894B1968864A0D
:104E300052680A4085494A601A60814B1B7813F01A
:104E4000040F07D0834B19687F4A92680A407F4954
:104E50008A601A607A4B1B7813F0080F07D07E4BDC
:104E60001968794AD2680A407849CA601A6062B6FD
:104E70007A4BDB68B3F1384F0AD0784B784A1A6026
:104E80004FF03842DA604FF078421A61754A1A6082
:104E90007548724A0378591ECEB24BB3841C4378CE
:104EA00095F8201043EA014343F000435363D36A6B
:104EB00013F0F00F18BF916B03F47043B3F5405F2C
:104EC000F5D8A01911E014F8013BE97F43EA01434A
:104ED00043F000435363D36A13F0F00F18BF916B94
:104EE00003F47043B3F5405FF5D88442EBD1D1E7CA
:104EF0005A4A116895F820301B0443F0006343F0D0
:104F000011035363D36A13F0805F04D113F0F00FE1
:104F1000F8D0936BF6E7514B4FF08052DA6219608C
:104F2000DB6A13F0F00F05D04C4B9A6BDA6A12F083
:104F3000F00FFAD1424B1B780BB313F0010F03D0E3
:104F4000424B1A68494B1A603D4B1B7813F0020F15
:104F500003D03E4B5A68464B1A60394B1B7813F00E
:104F6000040F03D0394B9A68424B1A60344B1B78BC
:104F700013F0080F03D0354BDA683F4B1A607820E6
:104F800002F06EF92E4B1B78002B35D072B62C4BED
:104F90001B7813F0010F07D02A4B19682A4A1268B0
:104FA0000A402A490A601A60254B1B7813F0020F49
:104FB00007D0274B1968244A52680A4023494A609F
:104FC0001A601F4B1B7813F0040F07D0214B196890
:104FD0001D4A92680A401D498A601A60184B1B7866
:104FE00013F0080F07D01C4B1968174AD2680A4003
:104FF0001649CA601A6062B6184BDB68B3F1384FC5
:105000000AD0164B164A1A604FF03842DA604FF059
:1050100078421A61134A1A60104A116895F82030D4
:105020001B0443F0006343F029035363D36A13F076
:10503000805F23D113F0F00FF8D0936BF6E700BF39
:10504000F022FF1F80E100E0D022FF1FE022FF1FBF
:1050500084E100E088E100E08CE100E000C0024073
:1050600001401F0000001F804406010000E100E035
:1050700004E100E008E100E00CE100E0274B4FF024
:105080008052DA621960DB6A13F0F00F05D0234B0F
:105090009A6BDA6A12F0F00FFAD1214B1B78002BD1
:1050A0003AD013F0010F03D01E4B1A681E4B1A6042
:1050B0001B4B1B7813F0020F03D01A4B5A681B4B83
:1050C0001A60174B1B7813F0040F03D0154B9A6826
:1050D000174B1A60124B1B7813F0080F1CD0114BA2
:1050E000DA68144B1A6070BD11F003013FF494ADFF
:1050F00001293FF496AD99E512F00C023FF4CEADD4
:10510000042A3FF4D0ADD3E513F030033FF408AEEA
:10511000102B3FF40AAE0DE670BD00BF00C0024088
:10512000F022FF1FE022FF1F00E100E004E100E0A9
:1051300008E100E00CE100E02DE9F04F8FB00546FA
:105140008B460392BDF860A0BDF864C09DF868600E
:10515000B0F906208A4240F3FB82B0F90820039898
:10516000824240F3F58206EB460201EB4202012A3D
:1051700000F1EE8200EBC602012A00F1E982E2456D
:1051800040F05681012E18D003EB8303374606EB1F
:1051900046010A9172000B92B000099006EB86015D
:1051A00008910822059200200490012106919F4A4F
:1051B0009A180D92B146564635E103EB8303039AE4
:1051C00096B206F1080292B203920127974A9A1802
:1051D0000492B946574680E00498815C19EA010FB1
:1051E00018BF43F001035B00DBB20132052AF3D1A3
:1051F0005C08002B67D01F2C02D01E2C17D10AE0B0
:1052000000972846594632B20523FEF791FF5AE02F
:105210001E2C10D101E04FF0000A0AEB0B010097A1
:10522000284609B232B20423FEF782FF4BE04FF06A
:10523000000A0FFA86F804F01C031C2B11D11FFA88
:105240008AFA0AEB0B010097284609B2424603236B
:10525000FEF76EFF2401E4B20AF1040A1FFA8AFA8B
:105260002FE004F01803182B11D11FFA8AFA0AEB69
:105270000B010097284609B242460223FEF758FF69
:10528000E400E4B20AF1030A1FFA8AFA19E014F002
:10529000100F10D01FFA8AFA0AEB0B01284609B248
:1052A00042463B46FEF704FEA400E4B20AF1020ABD
:1052B0001FFA8AFA05E06400E4B20AF1010A1FFA53
:1052C0008AFA002CA4D14FEA49095FFA89F901361C
:1052D000B6B203998E4200F03B82002213467BE770
:1052E0000D98815C0698084218BF43F001035B00EB
:1052F000DBB20132052AF3D15C08002B00F0848078
:105300001F2C02D01E2C23D110E00499039B01FB1B
:105310000732CDF8009001962846594612B2089BF4
:10532000FFF772F870E01E2C1FD101E04FF0000A69
:105330000AFB07B10498039B00FB0732CDF80090ED
:105340000196284609B212B2099BFFF75DF85BE0AF
:105350000498039900FB07134FF0000A1BB2079350
:105360000FFA89F80B9A12B20C9204F01C031C2B52
:1053700013D11FFA8AFA07FB0AB1CDF80080019613
:10538000284609B2079A0A9BFFF73EF82401E4B2C7
:105390000AF1040A1FFA8AFA34E004F01803182B01
:1053A00013D11FFA8AFA0AFB07B1CDF800800196E3
:1053B000284609B2079A0C9BFFF726F8E400E4B2EE
:1053C0000AF1030A1FFA8AFA1CE014F0100F13D036
:1053D0001FFA8AFA0AFB07B1CDF800800196284629
:1053E00009B2079A4346FFF70FF8A400E4B20AF1A6
:1053F000020A1FFA8AFA05E06400E4B20AF1010A1F
:105400001FFA8AFA002C8ED106984300DBB206936D
:1054100004994B1C9BB20493059A531E9BB20593AF
:10542000002B00F095810022134659E74801010046
:10543000A24A1278002A35D072B6A04A127812F029
:10544000010F07D09E4A10689E49096801409E4896
:1054500001601160994A127812F0020F07D09B4A3E
:105460001068984949680140974841601160934A23
:10547000127812F0040F07D0954A10689149896894
:1054800001409148816011608C4A127812F0080F37
:1054900007D0904A10688B49C96801408A48C160AA
:1054A000116062B68C4AD268B2F1384F0AD08A4A8B
:1054B0008A4911604FF03841D1604FF07841116155
:1054C000874911601FFA8BF406EB460704EB470788
:1054D000013FBFB2039881B201EBC600013880B230
:1054E00095F82020120442F0004242F02A02DFF830
:1054F000E881C8F834204246D2F82C8018F0F00F2A
:1055000018BFD2F8389008F47048B8F5405FF3D867
:10551000EA7F44EA024444F010446F4A5463D46A78
:1055200014F0F00F18BFD2F8388004F47044B4F5CA
:10553000405FF4D8EC7F47EA044444F01044664AE4
:105540005463D46A14F0F00F18BF976B04F47044DE
:10555000B4F5405FF5D895F82020120442F00042DF
:1055600042F02B025C4C62632246D46A14F0F00FC6
:1055700018BF976B04F47044B4F5405FF5D8EA7F28
:1055800041EA024141F01041534A5163D16A11F09E
:10559000F00F18BF946B01F47041B1F5405FF5D87E
:1055A000E97F40EA014141F010414B4A5163D16A21
:1055B00011F0F00F18BF906B01F47041B1F5405F2E
:1055C000F5D895F82020120442F0004242F02C0257
:1055D00041494A630A46D16A11F0F00F18BF906B37
:1055E00001F47041B1F5405FF5D803EB8303082166
:1055F00004914FF001083B4A1344374A9B4645E06B
:105600001BF8070008EA0000002814BF5046604657
:105610004946EB7F40EA034343F010435363D36AA8
:1056200013F0F00F18BF946B03F47043B3F5405FB1
:10563000F5D80131CBB29E42EBD80137052FDFD12F
:105640000020EB7F4CEA034343F010435363D36ADB
:1056500013F0F00F18BF916B03F47043B3F5405F84
:10566000F5D80130C3B29E42EBD8039B01330393BC
:10567000DBB29E4201D90027C2E74FEA48085FFA31
:1056800088F80498431E9BB204932BB1002EF4D0EB
:10569000002103918946EEE70F4B196895F8202009
:1056A000120442F000625A63DA6A12F0805F1BD182
:1056B00012F0F00FF8D09A6BF6E700BFF022FF1F50
:1056C00080E100E0D022FF1FE022FF1F84E100E024
:1056D00088E100E08CE100E000C0024001401F00D2
:1056E00000001F80480101001B4B4FF08052DA621E
:1056F0001960DB6A13F0F00F05D0174B9A6BDA6A6A
:1057000012F0F00FFAD1154B1B780BB313F0010F09
:1057100003D0134B1A68134B1A60104B1B7813F00D
:10572000020F03D00E4B5A680F4B1A600B4B1B78BD
:1057300013F0040F03D00A4B9A680C4B1A60074B06
:105740001B7813F0080F03D0054BDA68084B1A607A
:105750000FB0BDE8F08F00BF00C00240F022FF1F75
:10576000E022FF1F00E100E004E100E008E100E0CA
:105770000CE100E02DE9F00F84B003920193DDF815
:1057800030A00091002900F0DB81B34B1B78002B87
:1057900035D072B6B04B1B7813F0010F07D0AF4B6A
:1057A0001968AF4A12680A40AE490A601A60AA4BEB
:1057B0001B7813F0020F07D0AB4B1968A84A526848
:1057C0000A40A8494A601A60A34B1B7813F0040FE3
:1057D00007D0A64B1968A24A92680A40A1498A607C
:1057E0001A609D4B1B7813F0080F07D0A04B196867
:1057F0009B4AD2680A409B49CA601A6062B69D4BB8
:10580000DB68B3F1384F0AD09A4B9B4A1A604FF0CD
:105810003842DA604FF078421A61984A1A600D9B5C
:10582000534402930022934B019F07F101094FF06B
:10583000805B90F82010090441F0004141F02B01F9
:105840005963D96A11F0F00F18BF9C6B01F47041D5
:10585000B1F5405FF5D81FFA8AF4C17F44EA0141EF
:1058600041F010415963D96A11F0F00F18BF9D6BD8
:1058700001F47041B1F5405FF5D8C17F44EA0141C0
:1058800041F010415963D96A11F0F00F18BF9C6BB9
:1058900001F47041B1F5405FF5D8019C4D46039984
:1058A00001E0013401350139012707FA01F6009FB3
:1058B0003E4201D001327FE0002A40F33D8190F862
:1058C0002060360446F0004646F02A065E63DE6A33
:1058D00016F0F00F18BF9F6B06F47046B6F5405FE8
:1058E000F5D8A61AB6B290F81FC046EA0C4646F0A4
:1058F00010465E63DE6A16F0F00F18BF9F6B06F469
:105900007046B6F5405FF5D8A6B290F81FC046EADB
:105910000C4646F010465E63DE6A16F0F00F18BFC4
:105920009F6B06F47046B6F5405FF5D890F820609E
:10593000360446F0004646F02C065E63DE6A16F03A
:10594000F00F18BF9F6B06F47046B6F5405FF5D8B0
:1059500010E0C77FC68946EA074646F010465E63F8
:10596000DE6A16F0F00F18BF9F6B06F47046B6F5AE
:10597000405FF5D8013AECD1D3F800C090F81F8011
:10598000C68946EA084646F0C0565E63DE6A16F0EF
:10599000805F04D116F0F00FF8D09E6BF6E7C3F8E5
:1059A0002CB0C3F800C0DE6A16F0F00F04D09E6B76
:1059B000DE6A16F0F00FFAD100297FF472AF1746B5
:1059C000002A40F38D8090F82010090441F0004136
:1059D00041F02A015963D96A11F0F00F18BF9C6B8E
:1059E00001F47041B1F5405FF5D8E91B89B2C47F7D
:1059F00041EA044141F010415963D96A11F0F00FB6
:105A000018BF9C6B01F47041B1F5405FF5D8ADB2A1
:105A1000C17F45EA014141F010415963D96A11F053
:105A2000F00F18BF9C6B01F47041B1F5405FF5D8E1
:105A300090F82010090441F0004141F02C01596315
:105A4000D96A11F0F00F18BF9C6B01F47041B1F5E9
:105A5000405FF5D825E000BFF022FF1F80E100E0A5
:105A6000D022FF1FE022FF1F84E100E088E100E078
:105A70008CE100E000C0024001401F0000001F80D8
:105A8000C47FC18941EA044141F010415963D96A98
:105A900011F0F00F18BF9C6B01F47041B1F5405F3D
:105AA000F5D8013AECD11C68C57FC18941EA0541AE
:105AB00041F0C0515963D96A11F0805F04D111F0EF
:105AC000F00FF8D0996BF6E7C3F82CB01C60D96AD8
:105AD00011F0F00F04D0996BD96A11F0F00FFAD1E0
